:1005A200EFD3940540037F0122120016FED3940379
:1005B20040037F0222EF64037041EE700B90000152
:1005C20012002FF452B152B2120016B4010B900075
:1005D2000112002F42B1F452B2120016FFB4020A05
:1005E20090000112002F42B142B2EFB4030D90000D
:0E05F2000112002FFFF452B1EF42B27F00223F
:10065A000D0A206C3253686F77576974684E756D4E
:10066A002E000D0A206D6F746F53746172742E2000
:10067A00000D0A202E2E2E2E000D0A20000D0A2013
:10068A00CDE2B2BFD6D0B6CF302E000D0A20CDE2D1
:10069A00B2BFD6D0B6CF312ED1D3CAB131C3EB0057
:10081100040800000000041700000000041200009A
:100821000000041B00000000020C0000010E00018A
:090831001101011600020F000084
:10083B00E4F522752301752401FB7A007922FF125E
:10084B00051D752201E4F523752401FB7A0079223D
:05085B007F0102051DF4
:100860007523337522037B007A0079227F031205FA
:10087000A275230CE4F522FB7A0079227F0302059E
:01088000A2D5
:10088100E4F522752301752401752501F5267527E7
:100891003C7528B0752901FB7A007922FF020173AA
:1006AA00120860D2B2D2B3D2B0C2B4C2B1D2B512B9
:1006BA00083B120881D2AF120795E47F07FEFDFCC2
:1006CA00AB0BAA0AA909A808C3120162601CE47F3D
:1006DA000DFEFDFCA808C3120162600EE47F13FE42
:0F06EA00FDFCA808C312016270CD1208D680C8AB
:10079500E510B4010BE4F5101208D67F021207D458
:1007A500E50FB40129E4F50F750B0CF50AF509F50C
:1007B50008F51EF51DF51CF51BF515F514F513F5D6
:0F07C50012F51AF519F518F5177F011207D4224E
:0207D4008F2272
:1007D600E4F523F5247E067F5A1208B8E4F523F5DE
:1007E60024C3E52495227480F8652398501C7F6401
:1007F6007E001208A1D2B17F647E001208A1C2B1A8
:0A0806000524E52470DB052380D7EC
:0108100022C5
:0C08D600D2B475160A7E067F6C0208B8CA
:100600001203A7E47B0AFAF9F8AF15AE14AD13ACE8
:10061000121200D0AC00AD01AE02AF03E4FBFAF958
:10062000F8C31201627004D2B08002C2B0E5167045
:100630000122E516B4080E1516C2B57F1E7E001203
:1006400008A1D2B522E516B40106E4F516C2B4221B
:0A065000E516D394004002151622AF
:0100060022D7
:1003A7007E067F7B1208B87F48120007E47B64FA59
:1003B700F9F8AF0BAE0AAD09AC081200D0AC00AD2E
:1003C70001AE02AF03E47B0AFAF9F81200D0EF247A
:1003D70030FF120007E47B0AFAF9F8AF0BAE0AAD5B
:1003E70009AC081200D0EB2430FF1200077F20125F
:1003F70000077F4D120007E47B64FAF9F8AF1AAEE5
:1004070019AD18AC171200D0AC00AD01AE02AF03A6
:10041700E47B0AFAF9F81200D0EF2430FF12000744
:10042700E47B0AFAF9F8AF1AAE19AD18AC17120047
:10043700D0EB2430FF1200077F201200077F5312F2
:100447000007E47B64FAF9F8AF15AE14AD13AC12EC
:100457001200D0AC00AD01AE02AF03E47B0AFAF99B
:10046700F81200D0EF2430FF120007E47B0AFAF9F4
:10047700F8AF15AE14AD13AC121200D0EB2430FF59
:0A0487001200077E067F830208B80A
:03000B000202915D
:10029100C0E0C0F0C083C082C0D075D000C000C033
:1002A10001C002C003C004C005C006C007E51E248A
:1002B10032F51EE4351DF51DE4351CF51CE4351B36
:1002C100F51BE47FE87E03FDFCAB1EAA1DA91CA85B
:1002D1001BC3120162500302038C751E00751D00C1
:1002E100751C00751B00120600E5152401F515E4C7
:1002F1003514F514E43513F513E43512F512E47FE2
:100301003CFEFDFCAB15AA14A913A812C31201628D
:1003110040791200067515007514007513007512E9
:1003210000E51A2401F51AE43519F519E43518F533
:1003310018E43517F517E47F3CFEFDFCAB1AAA194A
:10034100A918A817C31201624041751A0075190056
:10035100751800751700E50B2401F50BE4350AF556
:100361000AE43509F509E43508F508E47F18FEFDCE
:10037100FCAB0BAA0AA909A808C3120162400C75BB
:100381000B00750A00750900750800D007D006D06A
:1003910005D004D003D002D001D000D0D0D082D07B
:0603A10083D0F0D0E03231
:03000300020748A9
:10074800C0E0C0F0C083C082C0D075D000C000C077
:1007580001C002C003C004C005C006C007C2897535
:100768000F017E067F871208B87FD07E071208A186
:10077800D2A8D007D006D005D004D003D002D0012B
:0D078800D000D0D0D082D083D0F0D0E032AD
:030013000206F9E9
:1006F900C0E0C0F0C083C082C0D075D000C000C0C7
:1007090001C002C003C004C005C006C007C2AAC216
:100719008B7510017E067F951208B87FD07E07126F
:1007290008A1D2AAD007D006D005D004D003D002A0
:0F073900D001D000D0D0D082D083D0F0D0E03229
:10017300AD07EDD3940240037F0122ED6003020239
:1001830007C28C90000212002FB40104D2A980028E
:10019300C2A990000112002FB40104D2B98002C297
:1001A300B9120016FED3940340037F0222E589545B
:1001B300FC4EF58990000312002FFFB40103538E08
:1001C3007FEF7003438E80EFB402054389048003FD
:1001D3005389FB90000412002FB40105438F018063
:1001E30003538FFE90000512005CE5F0F58C900040
:1001F3000512005CF58A90000712002FB40102D2A9
:100203008C7F0022ED6401600302028EC28E900097
:100213000212002FB40104D2AB8002C2AB900001E2
:1002230012002FB40104D2BB8002C2BB120016FE1F
:10023300C3940340037F0222E58954CF4EF589908E
:10024300000312002FFFB40103538EBFEF7003436B
:100253008E40EFB4020543894080035389BF900069
:100263000412002FB40105438F028003538FFD90C6
:10027300000512005CFDACF0ECF58D8D8B90000752
:0E02830012002FB40102D28E7F00227F0222D1
:0D08C8007F5F7E00EF1F70011E144E70F761
:0108D5002200
:0100070022D6
:1008B8008F828E83E493FF6006120007A380F522DF
:1008A1007D9B7C03ED1D70011C144C70F7EF1F70D4
:0608B100011E144E70EA66
:0108B700221E
:10051D00EFD3940440037F0122EF702D900002125F
:10052D00002FB40104D2A88002C2A89000011200CD
:10053D002FB40104D2B88002C2B8120016B401045F
:10054D00D2888002C2887F0022EF6401702D900056
:10055D000212002FB40104D2AA8002C2AA90000197
:10056D0012002FB40104D2BA8002C2BA120016B41E
:10057D000104D28A8002C28A7F0022BF0314900038
:10058D000212002FB40105438F208003538FDF7FAC
:05059D0000227F022294
:0300000002049166
:0C049100787FE4F6D8FD7581290204D8BC
:10001600BB010689828A83E0225002E722BBFE02E8
:09002600E32289828A83E493221B
:10002F00BB010CE58229F582E5833AF583E0225086
:10003F0006E92582F8E622BBFE06E92582F8E222D0
:0D004F00E58229F582E5833AF583E49322EA
:10005C00BB0110E58229F582E5833AF583E0F5F0E2
:10006C00A3E0225009E92582F886F008E622BBFEBF
:10007C000AE92582F8E2F5F008E222E5832AF58305
:08008C00E993F5F0A3E99322CA
:1000940075F008758200EF2FFFEE33FECD33CDCC23
:1000A40033CCC58233C5829BED9AEC99E5829840A6
:1000B4000CF582EE9BFEED9AFDEC99FC0FD5F0D683
:1000C400E4CEFBE4CDFAE4CCF9A88222B800C1B9AD
:1000D4000059BA002DEC8BF084CFCECDFCE5F0CBEB
:1000E400F97818EF2FFFEE33FEED33FDEC33FCEB24
:1000F40033FB10D703994004EB99FB0FD8E5E4F9DF
:10010400FA227818EF2FFFEE33FEED33FDEC33FCCB
:10011400C933C910D7059BE99A4007EC9BFCE99ABF
:10012400F90FD8E0E4C9FAE4CCFB2275F010EF2F04
:10013400FFEE33FEED33FDCC33CCC833C810D70704
:100144009BEC9AE899400AED9BFDEC9AFCE899F83F
:0E0154000FD5F0DAE4CDFBE4CCFAE4C8F922D2
:10016200EB9FF5F0EA9E42F0E99D42F0E89C45F0F3
:01017200226A
:10049D000206AAE493A3F8E493A34003F68001F2C5
:1004AD0008DFF48029E493A3F85407240CC8C33360
:1004BD00C4540F4420C8834004F456800146F6DF2F
:1004CD00E4800B0102040810204080900811E47EA6
:1004DD00019360BCA3FF543F30E509541FFEE49324
:1004ED00A360010ECF54C025E060A840B8E493A3EB
:1004FD00FAE493A3F8E493A3C8C582C8CAC583CA16
:10050D00F0A3C8C582C8CAC583CADFE9DEE780BECD
:01083A0000BD
:00000001FF
