:10059B00EFD3940540037F0122120016FED3940380
:1005AB0040037F0222EF64037041EE700B90000159
:1005BB0012002FF452B152B2120016B4010B90007C
:1005CB000112002F42B1F452B2120016FFB4020A0C
:1005DB0090000112002F42B142B2EFB4030D900014
:0E05EB000112002FFFF452B1EF42B27F002246
:1006F1000D0A206C3253686F77576974684E756DB7
:100701002E20000D0A206D6F746F53746172742E68
:1007110020000D0A20000D0A20CDE2B2BFD6D0B6CE
:10072100CF302E000D0A20CDE2B2BFD6D0B6CF31E8
:090731002ED1D3CAB131C3EB0093
:1007F30004080000000004170000000004120000B9
:100803000000041B00000000020C0000010E0001A8
:090813001101011600020F0000A2
:10084300E4F51F752001752101FB7A00791FFF1262
:100853000516751F01E4F520752101FB7A00791F48
:050863007F01020516F3
:10086800752033751F037B007A00791F7F031205FB
:100878009B75200CE4F51FFB7A00791F7F030205A6
:010888009BD4
:10088900E4F51F752001752101752201F5237524F1
:100899003C7525B0752601FB7A00791FFF020173AB
:10065300120868D2B2D2B3D2B0C2B4C2B1D2B51208
:100663000843120889D2AF12077EE47F07FEFDFC20
:10067300AB0BAA0AA909A808C3120162601CE47F94
:100683000DFEFDFCA808C3120162600EE47F13FE99
:0F069300FDFCA808C312016270CD1208DE80C8FA
:10077E00E510B4010BE4F5101208DE7F021207BD7E
:10078E00E50FB40129E4F50F750B0CF50AF509F523
:10079E0008F51EF51DF51CF51BF515F514F513F5ED
:0F07AE0012F51AF519F518F5177F011207BD227C
:0207BD008F1F8C
:1007BF00E4F520F5217E067FF11208C0E4F520F55F
:1007CF0021C3E521951F7480F86520985015C2B19B
:1007DF007FC87E001208A9D2B10521E52170E2057C
:0307EF002080DE89
:0107F20022E4
:0A08DE0075160A7E077F040208C0A9
:1005F9001203A7E47B0AFAF9F8AF15AE14AD13ACF0
:10060900121200D0AC00AD01AE02AF03E4FBFAF95F
:10061900F8C31201627004D2B08002C2B0E516704C
:100629000122E516B4080E1516C2B57F147E001214
:1006390008A9D2B522E516B40106E4F516C2B4221A
:0A064900E516D394004002151622B6
:0100060022D7
:1003A7007F4812081DE47B64FAF9F8AF0BAE0AAD7B
:1003B70009AC081200D0AC00AD01AE02AF03E47B7C
:1003C7000AFAF9F81200D0EF2430FF12081DE47B77
:1003D7000AFAF9F8AF0BAE0AAD09AC081200D0EB78
:1003E7002430FF12081D7F2012081D7F4D12081DA3
:1003F700E47B64FAF9F8AF1AAE19AD18AC1712001E
:10040700D0AC00AD01AE02AF03E47B0AFAF9F812F3
:1004170000D0EF2430FF12081DE47B0AFAF9F8AF89
:100427001AAE19AD18AC171200D0EB2430FF120822
:100437001D7F2012081D7F5312081DE47B64FAF903
:10044700F8AF15AE14AD13AC121200D0AC00AD016D
:10045700AE02AF03E47B0AFAF9F81200D0EF2430BA
:10046700FF12081DE47B0AFAF9F8AF15AE14AD13B5
:10047700AC121200D0EB2430FF12081D7E077F1349
:030487000208C0A8
:03000B000202915D
:10029100C0E0C0F0C083C082C0D075D000C000C033
:1002A10001C002C003C004C005C006C007E51E248A
:1002B10032F51EE4351DF51DE4351CF51CE4351B36
:1002C100F51BE47FE87E03FDFCAB1EAA1DA91CA85B
:1002D1001BC3120162500302038C751E00751D00C1
:1002E100751C00751B001205F9E5152401F515E4CF
:1002F1003514F514E43513F513E43512F512E47FE2
:100301003CFEFDFCAB15AA14A913A812C31201628D
:1003110040791200067515007514007513007512E9
:1003210000E51A2401F51AE43519F519E43518F533
:1003310018E43517F517E47F3CFEFDFCAB1AAA194A
:10034100A918A817C31201624041751A0075190056
:10035100751800751700E50B2401F50BE4350AF556
:100361000AE43509F509E43508F508E47F18FEFDCE
:10037100FCAB0BAA0AA909A808C3120162400C75BB
:100381000B00750A00750900750800D007D006D06A
:1003910005D004D003D002D001D000D0D0D082D07B
:0603A10083D0F0D0E03231
:0300030002073AB7
:10073A00C0E0C0F0C083C082C0D075D000C000C085
:10074A0001C002C003C004C005C006C007C2897E3A
:10075A00077F171208C0750F01D007D006D005D041
:10076A0004D003D002D001D000D0D0D082D083D020
:04077A00F0D0E032A9
:030013000206A240
:1006A200C0E0C0F0C083C082C0D075D000C000C01E
:1006B20001C002C003C004C005C006C007C2AAC26E
:1006C2008B7E077F251208C07FD07E071208A9D231
:1006D200AA751001D007D006D005D004D003D002ED
:0F06E200D001D000D0D0D082D083D0F0D0E03281
:10017300AD07EDD3940240037F0122ED6003020239
:1001830007C28C90000212002FB40104D2A980028E
:10019300C2A990000112002FB40104D2B98002C297
:1001A300B9120016FED3940340037F0222E589545B
:1001B300FC4EF58990000312002FFFB40103538E08
:1001C3007FEF7003438E80EFB402054389048003FD
:1001D3005389FB90000412002FB40105438F018063
:1001E30003538FFE90000512005CE5F0F58C900040
:1001F3000512005CF58A90000712002FB40102D2A9
:100203008C7F0022ED6401600302028EC28E900097
:100213000212002FB40104D2AB8002C2AB900001E2
:1002230012002FB40104D2BB8002C2BB120016FE1F
:10023300C3940340037F0222E58954CF4EF589908E
:10024300000312002FFFB40103538EBFEF7003436B
:100253008E40EFB4020543894080035389BF900069
:100263000412002FB40105438F028003538FFD90C6
:10027300000512005CFDACF0ECF58D8D8B90000752
:0E02830012002FB40102D28E7F00227F0222D1
:0D08D0007F5F7E00EF1F70011E144E70F759
:0108DD0022F8
:02081D00AD0725
:10081F00C2B11208D0E4FCED30E004D2B18002C2C4
:10082F00B1EDC313FD1208D00CBC08EBD2B1120806
:04083F00D00208D00B
:1008C0008F828E83E493FF600612081DA380F522B9
:1008A9007D9B7C03ED1D70011C144C70F7EF1F70CC
:0608B900011E144E70EA5E
:0108BF002216
:10051600EFD3940440037F0122EF702D9000021266
:10052600002FB40104D2A88002C2A89000011200D4
:100536002FB40104D2B88002C2B8120016B4010466
:10054600D2888002C2887F0022EF6401702D90005D
:100556000212002FB40104D2AA8002C2AA9000019E
:1005660012002FB40104D2BA8002C2BA120016B425
:100576000104D28A8002C28A7F0022BF031490003F
:100586000212002FB40105438F208003538FDF7FB3
:0505960000227F02229B
:0300000002048A6D
:0C048A00787FE4F6D8FD7581260204D1CD
:10001600BB010689828A83E0225002E722BBFE02E8
:09002600E32289828A83E493221B
:10002F00BB010CE58229F582E5833AF583E0225086
:10003F0006E92582F8E622BBFE06E92582F8E222D0
:0D004F00E58229F582E5833AF583E49322EA
:10005C00BB0110E58229F582E5833AF583E0F5F0E2
:10006C00A3E0225009E92582F886F008E622BBFEBF
:10007C000AE92582F8E2F5F008E222E5832AF58305
:08008C00E993F5F0A3E99322CA
:1000940075F008758200EF2FFFEE33FECD33CDCC23
:1000A40033CCC58233C5829BED9AEC99E5829840A6
:1000B4000CF582EE9BFEED9AFDEC99FC0FD5F0D683
:1000C400E4CEFBE4CDFAE4CCF9A88222B800C1B9AD
:1000D4000059BA002DEC8BF084CFCECDFCE5F0CBEB
:1000E400F97818EF2FFFEE33FEED33FDEC33FCEB24
:1000F40033FB10D703994004EB99FB0FD8E5E4F9DF
:10010400FA227818EF2FFFEE33FEED33FDEC33FCCB
:10011400C933C910D7059BE99A4007EC9BFCE99ABF
:10012400F90FD8E0E4C9FAE4CCFB2275F010EF2F04
:10013400FFEE33FEED33FDCC33CCC833C810D70704
:100144009BEC9AE899400AED9BFDEC9AFCE899F83F
:0E0154000FD5F0DAE4CDFBE4CCFAE4C8F922D2
:10016200EB9FF5F0EA9E42F0E99D42F0E89C45F0F3
:01017200226A
:10049600020653E493A3F8E493A34003F68001F223
:1004A60008DFF48029E493A3F85407240CC8C33367
:1004B600C4540F4420C8834004F456800146F6DF36
:1004C600E4800B01020408102040809007F3E47ECC
:1004D600019360BCA3FF543F30E509541FFEE4932B
:1004E600A360010ECF54C025E060A840B8E493A3F2
:1004F600FAE493A3F8E493A3C8C582C8CAC583CA1D
:10050600F0A3C8C582C8CAC583CADFE9DEE780BED4
:01081C0000DB
:00000001FF
