:1006DB00EFD3940540037F012212005EFED39403F7
:1006EB0040037F0222EF64037041EE700B90000118
:1006FB00120077F452B152B212005EB4010B9000AB
:10070B000112007742B1F452B212005EFFB4020A3A
:10071B0090000112007742B142B2EFB4030D90008A
:0E072B0001120077FFF452B1EF42B27F0022BC
:100785000D0A20000D0A20B0B4BCFCD2D1B0B4CF04
:10079500C22E000D0A20CDE2B2BFD6D0B6CF302E84
:1007A500000D0A20CDE2B2BFD6D0B6CF312ED1D3BF
:1007B500CAB131C3EB000D0A20CDE2B2BFD6D0B627
:0B07C500CF332ED1D3CAB131C3EB00FB
:10084700040800000000041B00000000041600005C
:100857000000041F00000000010F32020C0000011D
:100867000E00011401011000011A00011500031107
:030877000000007E
:10080F00E4F523752401752501FB7A007923FF1286
:10081F000656752301E4F524752501FB7A0079232B
:10082F007F01120656752301E4F524752501FB7A25
:08083F000079237F0302065635
:1008A1007524237523037B007A0079237F031206C5
:1008B100DB75241CE4F523FB7A0079237F03020610
:0108C100DB5B
:1008C200E4F523752401752501752601F5277528A0
:1008D2003C7529B0752A01FB7A007923FF0201BB1E
:1003F1001208A1D2B2D2B3D2B5D2B0C2B4C2B11234
:10040100080F1208C2D2AFE4FFFEFDFCAB0BAA0A33
:10041100A909A808C31201AA606AE47F04FEFDFCD1
:10042100A808C31201AA605CE47F07FEFDFCA808CE
:10043100C31201AA604EE47F0AFEFDFCA808C312A4
:1004410001AA6040E47F0DFEFDFCA808C31201AAC9
:100451006032E47F10FEFDFCA808C31201AA6024EB
:10046100E47F13FEFDFCA808C31201AA6016E47F15
:1004710016FEFDFCA808C31201AA6008E50D64017F
:10048100450C7024AF14E4FCFDFEAB1EAA1DA91C93
:10049100A81BC31201AA4008E50D6401450C7005B3
:1004A1007510018003E4F510E47B0AFAF9F8AF193D
:1004B100AE18AD17AC16120118AC00AD01AE02AF0B
:1004C10003E4FBFAF9F8C31201AA7010751A017F4F
:1004D100D07E07120918E4F51A0204087F847E030E
:0604E100120918020408D4
:10090000E50EC394015008E4F50CF50DF50E2275C3
:080910000C00750D01150E220B
:030006000204E70A
:1004E7007F4812087BE47B64FAF9F8AF0BAE0AADDC
:1004F70009AC08120118AC00AD01AE02AF03E47BF2
:100507000AFAF9F8120118EF2430FF12087BE47B8E
:100517000AFAF9F8AF0BAE0AAD09AC08120118EBED
:100527002430FF12087B7F2012087B7F4D12087B47
:10053700E47B64FAF9F8AF1EAE1DAD1CAC1B1201CB
:1005470018AC00AD01AE02AF03E47B0AFAF9F8126A
:100557000118EF2430FF12087BE47B0AFAF9F8AFA1
:100567001EAE1DAD1CAC1B120118EB2430FF120888
:100577007B7F2012087B7F5312087BE47B64FAF9A8
:10058700F8AF19AE18AD17AC16120118AC00AD01D3
:10059700AE02AF03E47B0AFAF9F8120118EF243030
:1005A700FF12087BE47B0AFAF9F8AF19AE18AD170A
:1005B700AC16120118EB2430FF12087B7E077F85EB
:0305C70002092FF7
:1008E200E51570197F0AFE120918E515700FF50C4F
:0E08F200750D0185140E7E077F8912092F22D5
:03000B000202D915
:1002D900C0E0C0F0C083C082C0D075D000C000C0EB
:1002E90001C002C003C004C005C006C007E4FCFD8C
:1002F900FEE522250FF522EE3521F521ED3520F514
:1003090020EC351FF51FE47FE87E03AB22AA21A963
:1003190020A81FC31201AA50030203D67522007533
:100329002100752000751F00120006E5192401F54A
:1003390019E43518F518E43517F517E43516F516E7
:10034900E47F3CFEFDFCAB19AA18A917A816C31235
:1003590001AA40791209007519007518007517006E
:10036900751600E51E2401F51EE4351DF51DE4355D
:100379001CF51CE4351BF51BE47F3CFEFDFCAB1EA4
:10038900AA1DA91CA81BC31201AA4041751E00750C
:100399001D00751C00751B00E50B2401F50BE435E8
:1003A9000AF50AE43509F509E43508F508E47F1882
:1003B900FEFDFCAB0BAA0AA909A808C31201AA40B1
:1003C9000C750B00750A00750900750800D007D077
:1003D90006D005D004D003D002D001D000D0D0D0AF
:0803E90082D083D0F0D0E03295
:03000300020016E2
:10001600C0E0C0F0C083C082C0D075D000C000C0B0
:1000260001C002C003C004C005C006C007C2897E65
:10003600077F9812092FD007D006D005D004D00329
:10004600D002D001D000D0D0D082D083D0F0D0E082
:010056003277
:03001300020739A8
:10073900C0E0C0F0C083C082C0D075D000C000C086
:1007490001C002C003C004C005C006C007C2AAC2D6
:100759008B7E077FA612092F7FD07E07120918D238
:10076900AAD007D006D005D004D003D002D001D03A
:0C07790000D0D0D082D083D0F0D0E0328D
:03005B000207D0C9
:1007D000C0E0C0F0C083C082C0D075D000C000C0EF
:1007E00001C002C003C004C005C006C0077E077F69
:1007F000BB12092FD007D006D005D004D003D002F9
:0F080000D001D000D0D0D082D083D0F0D0E03261
:1001BB00AD07EDD3940240037F0122ED60030202F1
:1001CB004FC28C900002120077B40104D2A98002B6
:1001DB00C2A9900001120077B40104D2B98002C207
:1001EB00B912005EFED3940340037F0222E58954CB
:1001FB00FC4EF589900003120077FFB40103538E78
:10020B007FEF7003438E80EFB402054389048003B4
:10021B005389FB900004120077B40105438F0180D2
:10022B0003538FFE9000051200A4E5F0F58C9000AF
:10023B00051200A4F58A900007120077B40102D2D0
:10024B008C7F0022ED640160030202D6C28E900007
:10025B0002120077B40104D2AB8002C2AB90000152
:10026B00120077B40104D2BB8002C2BB12005EFE47
:10027B00C3940340037F0222E58954CF4EF5899046
:10028B000003120077FFB40103538EBFEF700343DB
:10029B008E40EFB4020543894080035389BF900021
:1002AB0004120077B40105438F028003538FFD9036
:1002BB0000051200A4FDACF0ECF58D8D8B900007C2
:0E02CB00120077B40102D28E7F00227F022241
:0D093F007F5F7E00EF1F70011E144E70F7E9
:01094C002288
:02087B00AD07C7
:10087D00C2B112093FE4FCED30E004D2B18002C2F6
:10088D00B1EDC313FD12093F0CBC08EBD2B1120937
:04089D003F02093FCE
:10092F008F828E83E493FF600612087BA380F522EB
:100918007D9B7C03ED1D70011C144C70F7EF1F705C
:06092800011E144E70EAEE
:01092E0022A6
:10065600EFD3940440037F0122EF702D9000021225
:100666000077B40104D2A88002C2A890000112004B
:1006760077B40104D2B88002C2B812005EB4010495
:10068600D2888002C2887F0022EF6401702D90001C
:1006960002120077B40104D2AA8002C2AA90000115
:1006A600120077B40104D2BA8002C2BA12005EB454
:1006B6000104D28A8002C28A7F0022BF03149000FE
:1006C60002120077B40105438F208003538FDF7F2A
:0506D60000227F02225A
:030000000205CA2C
:0C05CA00787FE4F6D8FD75812A02061146
:10005E00BB010689828A83E0225002E722BBFE02A0
:09006E00E32289828A83E49322D3
:10007700BB010CE58229F582E5833AF583E022503E
:1000870006E92582F8E622BBFE06E92582F8E22288
:0D009700E58229F582E5833AF583E49322A2
:1000A400BB0110E58229F582E5833AF583E0F5F09A
:1000B400A3E0225009E92582F886F008E622BBFE77
:1000C4000AE92582F8E2F5F008E222E5832AF583BD
:0800D400E993F5F0A3E9932282
:1000DC0075F008758200EF2FFFEE33FECD33CDCCDB
:1000EC0033CCC58233C5829BED9AEC99E58298405E
:1000FC000CF582EE9BFEED9AFDEC99FC0FD5F0D63B
:10010C00E4CEFBE4CDFAE4CCF9A88222B800C1B964
:10011C000059BA002DEC8BF084CFCECDFCE5F0CBA2
:10012C00F97818EF2FFFEE33FEED33FDEC33FCEBDB
:10013C0033FB10D703994004EB99FB0FD8E5E4F996
:10014C00FA227818EF2FFFEE33FEED33FDEC33FC83
:10015C00C933C910D7059BE99A4007EC9BFCE99A77
:10016C00F90FD8E0E4C9FAE4CCFB2275F010EF2FBC
:10017C00FFEE33FEED33FDCC33CCC833C810D707BC
:10018C009BEC9AE899400AED9BFDEC9AFCE899F8F7
:0E019C000FD5F0DAE4CDFBE4CCFAE4C8F9228A
:1001AA00EB9FF5F0EA9E42F0E99D42F0E89C45F0AB
:0101BA002222
:1005D6000203F1E493A3F8E493A34003F68001F247
:1005E60008DFF48029E493A3F85407240CC8C33326
:1005F600C4540F4420C8834004F456800146F6DFF5
:10060600E4800B0102040810204080900847E47E35
:10061600019360BCA3FF543F30E509541FFEE493E9
:10062600A360010ECF54C025E060A840B8E493A3B0
:10063600FAE493A3F8E493A3C8C582C8CAC583CADB
:10064600F0A3C8C582C8CAC583CADFE9DEE780BE93
:01087A00007D
:00000001FF
