:10032500EF640370481201C0FF700D9000011201C7
:10033500D9F452B152B28035EFB4010D90000112DB
:1003450001D942B1F452B280241201C0FFB4020CAB
:100355009000011201D942B142B28011EFB4030DF0
:100365009000011201D9FFF452B1EF42B27F002291
:10054400010800010D00010B00020E0000010C0067
:040554000209000098
:1004CA00E4F510751101751201FB7A007910FF121B
:1004DA0002B7751001E4F511FB7A0079107F010269
:0204EA0002B757
:1004EC007511337510037B007A0079107F031203AA
:1004FC002575110CE4F510FB7A0079107F030203CB
:01050C0025C9
:10050D00E4F510751101751201751301F5147515CA
:10051D003C7516B0751701FB7A007910FF020016B5
:100471001204ECD2B2D2B3D2B0C2B4C2B1D2B5126C
:1004810004CA12050DD2AF1204A1E5086407600B7E
:10049100E508640D6005E508B413EC12055980E721
:1004A100E50AB4010BE4F50A1205597F0212044072
:1004B100E509B40113E4F50975080CF50EF50FF51E
:0904C1000BF50D7F01120440222D
:020440008F101B
:10044200E4F511F512C3E51295107480F865119860
:10045200501C7F647E0012052DD2B17F647E001293
:0E046200052DC2B10512E51270DB051180D721
:010470002269
:06055900D2B4750C0A2269
:10040300E50B75F00A84E5F07004D2B08002C2B047
:10041300E50C700122E50CB4080E150CC2B57F1E65
:100423007E0012052DD2B522E50CB40106E4F50CCD
:0D043300C2B422E50CD394004002150C2247
:03000B0002023EB0
:10023E00C0E0C0F0C083C082C0D075D000C000C086
:10024E0001C002C003C004C005C006C00774322539
:10025E000FF50FE4350EF50EC3E50F94E8E50E9499
:10026E0003402B750E00750F00120403050BE50BF2
:10027E00C3943C4019750B00050DE50D943C400EE2
:10028E00750D000508E50894184003750800D007A1
:10029E00D006D005D004D003D002D001D000D0D0EB
:0902AE00D082D083D0F0D0E03200
:030003000203BD38
:1003BD00C0E0C0F0C083C082C0D075D000C000C006
:1003CD0001C002C003C004C005C006C007C28975C4
:1003DD0009017FD07E0712052DD2A8D007D006D0F7
:1003ED0005D004D003D002D001D000D0D0D082D01F
:0603FD0083D0F0D0E032D5
:0300130002037570
:10037500C0E0C0F0C083C082C0D075D000C000C04E
:1003850001C002C003C004C005C006C007C2AAC29E
:100395008B750A017FD07E0712052DD2AAD007D012
:1003A50006D005D004D003D002D001D000D0D0D0E3
:0803B50082D083D0F0D0E032C9
:10001600AD07EDD3940240037F0122ED6003020099
:10002600AAC28C9000021201D9B40104D2A980029E
:10003600C2A99000011201D9B40104D2B98002C24A
:10004600B91201C0FED3940340037F0222E589540E
:10005600FC4EF5899000031201D9FFB40103538EBB
:100066007FEF7003438E80EFB4020543890480035B
:100076005389FB9000041201D9B40105438F018016
:1000860003538FFE900005120206E5F0F58C9000F2
:1000960005120206F58A9000071201D9B40102D2B0
:1000A6008C7F0022ED64016003020131C28E900054
:1000B600021201D9B40104D2AB8002C2AB90000196
:1000C6001201D9B40104D2BB8002C2BB1201C0FE28
:1000D600C3940340037F0222E58954CF4EF58990ED
:1000E60000031201D9FFB40103538EBFEF7003431F
:1000F6008E40EFB4020543894080035389BF9000C8
:10010600041201D9B40105438F028003538FFD9079
:100116000005120206FDACF0ECF58D8D8B90000704
:0E0126001201D9B40102D28E7F00227F022284
:10052D007D9B7C03ED1D70011C144C70F7EF1F704B
:06053D00011E144E70EADD
:010543002295
:1002B700EFD3940440037F0122EF702D90000212C8
:1002C70001D9B40104D2A88002C2A890000112018A
:1002D700D9B40104D2B88002C2B81201C0B4010473
:1002E700D2888002C2887F0022EF6401702D9000BF
:1002F700021201D9B40104D2AA8002C2AA90000155
:100307001201D9B40104D2BA8002C2BA1201C0B430
:0E0317000104D28A8002C28A7F00227F022265
:03000000020134C6
:0C013400787FE4F6D8FD75811702017B8E
:1001C000BB010689828A83E0225002E722BBFE023D
:0901D000E32289828A83E4932270
:1001D900BB010CE58229F582E5833AF583E02250DB
:1001E90006E92582F8E622BBFE06E92582F8E22225
:0D01F900E58229F582E5833AF583E493223F
:10020600BB0110E58229F582E5833AF583E0F5F036
:10021600A3E0225009E92582F886F008E622BBFE13
:100226000AE92582F8E2F5F008E222E5832AF58359
:08023600E993F5F0A3E993221E
:10014000020471E493A3F8E493A34003F68001F260
:1001500008DFF48029E493A3F85407240CC8C333C0
:10016000C4540F4420C8834004F456800146F6DF8F
:10017000E4800B0102040810204080900544E47ED6
:10018000019360BCA3FF543F30E509541FFEE49384
:10019000A360010ECF54C025E060A840B8E493A34B
:1001A000FAE493A3F8E493A3C8C582C8CAC583CA76
:1001B000F0A3C8C582C8CAC583CADFE9DEE780BE2E
:0105580000A2
:00000001FF
