:1005E300EFD3940540037F012212005EFED39403F0
:1005F30040037F0222EF64037041EE700B90000111
:10060300120077F452B152B212005EB4010B9000A3
:100613000112007742B1F452B212005EFFB4020A33
:1006230090000112007742B142B2EFB4030D900083
:0E06330001120077FFF452B1EF42B27F0022B5
:10077C000D0A20000D0A20CDE2B2BFD6D0B6CF3084
:10078C002E000D0A20CDE2B2BFD6D0B6CF312ED17D
:10079C00D3CAB131C3EB000D0A20CDE2B2BFD6D023
:0C07AC00B6CF332ED1D3CAB131C3EB005D
:10082B00040800000000041B000000000415000079
:10083B000000041F00000000020C0000010E00016C
:10084B001301010F00011A0001140001190003101C
:03085B000000009A
:1007F300E4F523752401752501FB7A007923FF12A3
:10080300055E752301E4F524752501FB7A00792340
:100813007F0112055E752301E4F524752501FB7A3A
:080823000079237F0302055E4A
:1008B3007524237523037B007A0079237F031205B4
:1008C300E375241CE4F523FB7A0079237F030205F7
:0108D300E341
:1008D400E4F523752401752501752601F52775288E
:1008E4003C7529B0752A01FB7A007923FF0201BB0C
:1006EE001208B3D2B2D2B3D2B5D2B1C2B4C2B1D261
:1006FE00B01207F31208D4D2AF1207B8E47F07FE88
:10070E00FDFCAB0BAA0AA909A808C31201AA60E94D
:10071E00E47F0DFEFDFCA808C31201AA60DBE47F96
:0C072E0013FEFDFCA808C31201AA80CD38
:1007B800E512B40103E4F512E511B40104E5117082
:1007C800FCE510B40124E4750B0CF50AF509F508ED
:1007D800F522F521F520F51FF518F517F516F5158D
:0B07E800F51EF51DF51CF51BF5102299
:02085F008F2BDD
:10086100E4F52CF52DF52CF52DC3E52D952B748094
:10087100F8652C985015C2B17FC87E001208F4D2D9
:0B088100B1052DE52D70E2052C80DE96
:01088C002249
:0400060075190A223C
:100641001203EFE47B0AFAF9F8AF18AE17AD16AC56
:1006510015120118AC00AD01AE02AF03E4FBFAF9CB
:10066100F8C31201AA700AC2B47FC8FE1208F4D2FC
:10067100B4E519700122E519B4080E1519C2B07F4D
:10068100147E001208F4D2B022E519B40106E4F593
:0E06910019C2B422E519D394004002151922B3
:01000A0022D3
:1003EF007F4812088DE47B64FAF9F8AF0BAE0AADC3
:1003FF0009AC08120118AC00AD01AE02AF03E47BEB
:10040F000AFAF9F8120118EF2430FF12088DE47B75
:10041F000AFAF9F8AF0BAE0AAD09AC08120118EBE6
:10042F002430FF12088D7F2012088D7F4D12088D0A
:10043F00E47B64FAF9F8AF1EAE1DAD1CAC1B1201C4
:10044F0018AC00AD01AE02AF03E47B0AFAF9F81263
:10045F000118EF2430FF12088DE47B0AFAF9F8AF88
:10046F001EAE1DAD1CAC1B120118EB2430FF120881
:10047F008D7F2012088D7F5312088DE47B64FAF96B
:10048F00F8AF18AE17AD16AC15120118AC00AD01D0
:10049F00AE02AF03E47B0AFAF9F8120118EF243029
:1004AF00FF12088DE47B0AFAF9F8AF18AE17AD16F4
:1004BF00AC15120118EB2430FF12088D7E077F7CDC
:0304CF0002090B14
:03000B000202D915
:1002D900C0E0C0F0C083C082C0D075D000C000C0EB
:1002E90001C002C003C004C005C006C007E522243E
:1002F90032F522E43521F521E43520F520E4351FD6
:10030900F51FE47FE87E03FDFCAB22AA21A920A802
:100319001FC31201AA50030203D4752200752100DC
:10032900752000751F00120641E5182401F518E42F
:100339003517F517E43516F516E43515F515E47F87
:100349003CFEFDFCAB18AA17A916A815C31201AAF1
:10035900407912000A751800751700751600751591
:1003690000E51E2401F51EE4351DF51DE4351CF5D7
:100379001CE4351BF51BE47F3CFEFDFCAB1EAA1DEE
:10038900A91CA81BC31201AA4041751E00751D00B6
:10039900751C00751B00E50B2401F50BE4350AF506
:1003A9000AE43509F509E43508F508E47F18FEFD86
:1003B900FCAB0BAA0AA909A808C31201AA400C752B
:1003C9000B00750A00750900750800D007D006D022
:1003D90005D004D003D002D001D000D0D0D082D033
:0603E90083D0F0D0E032E9
:03000300020016E2
:10001600C0E0C0F0C083C082C0D075D000C000C0B0
:1000260001C002C003C004C005C006C007C2897E65
:10003600077F8012090B751001D007D006D005D0B6
:1000460004D003D002D001D000D0D0D082D083D04B
:04005600F0D0E032D4
:0300130002069F43
:10069F00C0E0C0F0C083C082C0D075D000C000C021
:1006AF0001C002C003C004C005C006C007C2AAC271
:1006BF008B7E077F8E12090B7FD07E071208F4D234
:1006CF00AA751101D007D006D005D004D003D002EF
:0F06DF00D001D000D0D0D082D083D0F0D0E03284
:03005B0002073A5F
:10073A00C0E0C0F0C083C082C0D075D000C000C085
:10074A0001C002C003C004C005C006C0077E077FFF
:10075A00A312090B751201D007D006D005D004D018
:10076A0003D002D001D000D0D0D082D083D0F0D034
:02077A00E0326B
:1001BB00AD07EDD3940240037F0122ED60030202F1
:1001CB004FC28C900002120077B40104D2A98002B6
:1001DB00C2A9900001120077B40104D2B98002C207
:1001EB00B912005EFED3940340037F0222E58954CB
:1001FB00FC4EF589900003120077FFB40103538E78
:10020B007FEF7003438E80EFB402054389048003B4
:10021B005389FB900004120077B40105438F0180D2
:10022B0003538FFE9000051200A4E5F0F58C9000AF
:10023B00051200A4F58A900007120077B40102D2D0
:10024B008C7F0022ED640160030202D6C28E900007
:10025B0002120077B40104D2AB8002C2AB90000152
:10026B00120077B40104D2BB8002C2BB12005EFE47
:10027B00C3940340037F0222E58954CF4EF5899046
:10028B000003120077FFB40103538EBFEF700343DB
:10029B008E40EFB4020543894080035389BF900021
:1002AB0004120077B40105438F028003538FFD9036
:1002BB0000051200A4FDACF0ECF58D8D8B900007C2
:0E02CB00120077B40102D28E7F00227F022241
:0D091B007F5F7E00EF1F70011E144E70F70D
:0109280022AC
:02088D00AD07B5
:10088F00C2B112091BE4FCED30E004D2B18002C208
:10089F00B1EDC313FD12091B0CBC08EBD2B1120949
:0408AF001B02091B04
:10090B008F828E83E493FF600612088DA380F522FD
:1008F4007D9B7C03ED1D70011C144C70F7EF1F7081
:06090400011E144E70EA12
:01090A0022CA
:10055E00EFD3940440037F0122EF702D900002121E
:10056E000077B40104D2A88002C2A8900001120044
:10057E0077B40104D2B88002C2B812005EB401048E
:10058E00D2888002C2887F0022EF6401702D900015
:10059E0002120077B40104D2AA8002C2AA9000010E
:1005AE00120077B40104D2BA8002C2BA12005EB44D
:1005BE000104D28A8002C28A7F0022BF03149000F7
:1005CE0002120077B40105438F208003538FDF7F23
:0505DE0000227F022253
:030000000204D225
:0C04D200787FE4F6D8FD75812D02051935
:10005E00BB010689828A83E0225002E722BBFE02A0
:09006E00E32289828A83E49322D3
:10007700BB010CE58229F582E5833AF583E022503E
:1000870006E92582F8E622BBFE06E92582F8E22288
:0D009700E58229F582E5833AF583E49322A2
:1000A400BB0110E58229F582E5833AF583E0F5F09A
:1000B400A3E0225009E92582F886F008E622BBFE77
:1000C4000AE92582F8E2F5F008E222E5832AF583BD
:0800D400E993F5F0A3E9932282
:1000DC0075F008758200EF2FFFEE33FECD33CDCCDB
:1000EC0033CCC58233C5829BED9AEC99E58298405E
:1000FC000CF582EE9BFEED9AFDEC99FC0FD5F0D63B
:10010C00E4CEFBE4CDFAE4CCF9A88222B800C1B964
:10011C000059BA002DEC8BF084CFCECDFCE5F0CBA2
:10012C00F97818EF2FFFEE33FEED33FDEC33FCEBDB
:10013C0033FB10D703994004EB99FB0FD8E5E4F996
:10014C00FA227818EF2FFFEE33FEED33FDEC33FC83
:10015C00C933C910D7059BE99A4007EC9BFCE99A77
:10016C00F90FD8E0E4C9FAE4CCFB2275F010EF2FBC
:10017C00FFEE33FEED33FDCC33CCC833C810D707BC
:10018C009BEC9AE899400AED9BFDEC9AFCE899F8F7
:0E019C000FD5F0DAE4CDFBE4CCFAE4C8F9228A
:1001AA00EB9FF5F0EA9E42F0E99D42F0E89C45F0AB
:0101BA002222
:1004DE000206EEE493A3F8E493A34003F68001F240
:1004EE0008DFF48029E493A3F85407240CC8C3331F
:1004FE00C4540F4420C8834004F456800146F6DFEE
:10050E00E4800B010204081020408090082BE47E4A
:10051E00019360BCA3FF543F30E509541FFEE493E2
:10052E00A360010ECF54C025E060A840B8E493A3A9
:10053E00FAE493A3F8E493A3C8C582C8CAC583CAD4
:10054E00F0A3C8C582C8CAC583CADFE9DEE780BE8C
:01085E000099
:00000001FF
