:10068200EFD3940540037F0122120016FED3940398
:1006920040037F0222EF64037041EE700B90000171
:1006A20012002FF452B152B2120016B4010B900094
:1006B2000112002F42B1F452B2120016FFB4020A24
:1006C20090000112002F42B142B2EFB4030D90002C
:0E06D2000112002FFFF452B1EF42B27F00225E
:100766000D0A20CFD6D4DACAB1BCE43A000D0A206D
:10077600000D0A20B0B4BCFCD2D1B0B4CFC22E005A
:100786000D0A20CDE2B2BFD6D0B6CF302E000D0A6C
:0C07960020CDE2B2BFD6D0B6CF312E008D
:1007A200040800000000041B000000000416000002
:1007B2000000041F00000000010F32020C000001C3
:1007C2000E00011401011000011A000115000311AD
:0307D20000000024
:1007FC00E4F523752401752501FB7A007923FF129A
:10080C000614E4F523F524752501FB7A0079237F82
:04081C0001020614BB
:100820007524237523037B007A0079237F03120646
:100830008275241CE4F523FB7A0079237F030206EA
:010840008235
:10084100E4F523752401752501752601F527752821
:100851003C7529B0752A01FB7A007923FF020173E7
:1003A900120820D2B2D2B3D2B5D2B0C2B4C2B112FD
:1003B90007FC120841D2AF120861E4FFFEFDFCAB55
:1003C9000BAA0AA909A808C3120162606AE47F049A
:1003D900FEFDFCA808C3120162605CE47F07FEFD14
:1003E900FCA808C3120162604EE47F0AFEFDFCA866
:1003F90008C31201626040E47F0DFEFDFCA808C33A
:100409001201626032E47F10FEFDFCA808C31201EC
:10041900626024E47F13FEFDFCA808C31201626038
:1004290016E47F16FEFDFCA808C31201626008E508
:100439000D6401450C7024AF14E4FCFDFEAB1EAA4B
:100449001DA91CA81BC31201624008E50D640145E2
:100459000C70057510018003E4F510E47B0AFAF9C4
:10046900F8AF19AE18AD17AC161200D0AC00AD013B
:10047900AE02AF03E4FBFAF9F8C3120162700E751C
:100489001A017FD01208A6E4F51A0203C07F84126C
:0504990008A60203C0EB
:10087E00E50EC394015008E4F50CF50DF50E227546
:08088E000C00750D01150E228E
:0300060002049E53
:10049E007E077F661208967F481207D6E47B64FAC1
:1004AE00F9F8AF0BAE0AAD09AC081200D0AC00AD36
:1004BE0001AE02AF03E47B0AFAF9F81200D0EF2482
:1004CE0030FF1207D6E47B0AFAF9F8AF0BAE0AAD8D
:1004DE0009AC081200D0EB2430FF1207D67F201291
:1004EE0007D67F4D1207D6E47B64FAF9F8AF1EAE3D
:1004FE001DAD1CAC1B1200D0AC00AD01AE02AF03A3
:10050E00E47B0AFAF9F81200D0EF2430FF1207D676
:10051E00E47B0AFAF9F8AF1EAE1DAD1CAC1B12003F
:10052E00D0EB2430FF1207D67F201207D67F53124E
:10053E0007D6E47B64FAF9F8AF19AE18AD17AC160E
:10054E001200D0AC00AD01AE02AF03E47B0AFAF9A3
:10055E00F81200D0EF2430FF1207D6E47B0AFAF926
:10056E00F8AF19AE18AD17AC161200D0EB2430FF51
:0A057E001207D67E077F730208966D
:10086100E51570187F0A1208A6E515700FF50C75CD
:0D0871000D0185140E7E077F771208962278
:03000B000202915D
:10029100C0E0C0F0C083C082C0D075D000C000C033
:1002A10001C002C003C004C005C006C007E4FCFDD4
:1002B100FEE522250FF522EE3521F521ED3520F55C
:1002C10020EC351FF51FE47FE87E03AB22AA21A9AC
:1002D10020A81FC3120162500302038E752200750C
:1002E1002100752000751F00120006E5192401F593
:1002F10019E43518F518E43517F517E43516F51630
:10030100E47F3CFEFDFCAB19AA18A917A816C3127D
:100311000162407912087E75190075180075170081
:10032100751600E51E2401F51EE4351DF51DE435A5
:100331001CF51CE4351BF51BE47F3CFEFDFCAB1EEC
:10034100AA1DA91CA81BC31201624041751E00759C
:100351001D00751C00751B00E50B2401F50BE43530
:100361000AF50AE43509F509E43508F508E47F18CA
:10037100FEFDFCAB0BAA0AA909A808C31201624041
:100381000C750B00750A00750900750800D007D0BF
:1003910006D005D004D003D002D001D000D0D0D0F7
:0803A10082D083D0F0D0E032DD
:030003000206E012
:1006E000C0E0C0F0C083C082C0D075D000C000C0E0
:1006F00001C002C003C004C005C006C007C2A8C232
:10070000897E077F86120896D007D006D005D004D0
:10071000D003D002D001D000D0D0D082D083D0F08E
:03072000D0E032F4
:03001300020723BE
:10072300C0E0C0F0C083C082C0D075D000C000C09C
:1007330001C002C003C004C005C006C007C2AAC2EC
:100743008B7E077F94120896D007D006D005D0047D
:10075300D003D002D001D000D0D0D082D083D0F04B
:03076300D0E032B1
:10017300AD07EDD3940240037F0122ED6003020239
:1001830007C28C90000212002FB40104D2A980028E
:10019300C2A990000112002FB40104D2B98002C297
:1001A300B9120016FED3940340037F0222E589545B
:1001B300FC4EF58990000312002FFFB40103538E08
:1001C3007FEF7003438E80EFB402054389048003FD
:1001D3005389FB90000412002FB40105438F018063
:1001E30003538FFE90000512005CE5F0F58C900040
:1001F3000512005CF58A90000712002FB40102D2A9
:100203008C7F0022ED6401600302028EC28E900097
:100213000212002FB40104D2AB8002C2AB900001E2
:1002230012002FB40104D2BB8002C2BB120016FE1F
:10023300C3940340037F0222E58954CF4EF589908E
:10024300000312002FFFB40103538EBFEF7003436B
:100253008E40EFB4020543894080035389BF900069
:100263000412002FB40105438F028003538FFD90C6
:10027300000512005CFDACF0ECF58D8D8B90000752
:0E02830012002FB40102D28E7F00227F0222D1
:0D08B6007F5F7E00EF1F70011E144E70F773
:0108C3002212
:0207D600AD076D
:1007D800C2B11208B6E4FCED30E004D2B18002C226
:1007E800B1EDC313FD1208B60CBC08EBD2B1120868
:0407F800B60208B687
:100896008F828E83E493FF60061207D6A380F5222B
:0F08A6007D9B7C03ED1D70011C144C70F7DFF17E
:0108B5002220
:10061400EFD3940440037F0122EF702D9000021267
:10062400002FB40104D2A88002C2A89000011200D5
:100634002FB40104D2B88002C2B8120016B4010467
:10064400D2888002C2887F0022EF6401702D90005E
:100654000212002FB40104D2AA8002C2AA9000019F
:1006640012002FB40104D2BA8002C2BA120016B426
:0E0674000104D28A8002C28A7F00227F022205
:030000000205886E
:0C058800787FE4F6D8FD75812A0205CFCB
:10001600BB010689828A83E0225002E722BBFE02E8
:09002600E32289828A83E493221B
:10002F00BB010CE58229F582E5833AF583E0225086
:10003F0006E92582F8E622BBFE06E92582F8E222D0
:0D004F00E58229F582E5833AF583E49322EA
:10005C00BB0110E58229F582E5833AF583E0F5F0E2
:10006C00A3E0225009E92582F886F008E622BBFEBF
:10007C000AE92582F8E2F5F008E222E5832AF58305
:08008C00E993F5F0A3E99322CA
:1000940075F008758200EF2FFFEE33FECD33CDCC23
:1000A40033CCC58233C5829BED9AEC99E5829840A6
:1000B4000CF582EE9BFEED9AFDEC99FC0FD5F0D683
:1000C400E4CEFBE4CDFAE4CCF9A88222B800C1B9AD
:1000D4000059BA002DEC8BF084CFCECDFCE5F0CBEB
:1000E400F97818EF2FFFEE33FEED33FDEC33FCEB24
:1000F40033FB10D703994004EB99FB0FD8E5E4F9DF
:10010400FA227818EF2FFFEE33FEED33FDEC33FCCB
:10011400C933C910D7059BE99A4007EC9BFCE99ABF
:10012400F90FD8E0E4C9FAE4CCFB2275F010EF2F04
:10013400FFEE33FEED33FDCC33CCC833C810D70704
:100144009BEC9AE899400AED9BFDEC9AFCE899F83F
:0E0154000FD5F0DAE4CDFBE4CCFAE4C8F922D2
:10016200EB9FF5F0EA9E42F0E99D42F0E89C45F0F3
:01017200226A
:100594000203A9E493A3F8E493A34003F68001F2D1
:1005A40008DFF48029E493A3F85407240CC8C33368
:1005B400C4540F4420C8834004F456800146F6DF37
:1005C400E4800B01020408102040809007A2E47E1E
:1005D400019360BCA3FF543F30E509541FFEE4932C
:1005E400A360010ECF54C025E060A840B8E493A3F3
:1005F400FAE493A3F8E493A3C8C582C8CAC583CA1E
:10060400F0A3C8C582C8CAC583CADFE9DEE780BED5
:0107D5000023
:00000001FF
