:10017B00010800010D00010C00020E000001090036
:03018B00010A0066
:10009900E4F5B175B20C538E7F5389F0438901752C
:1000A9008AB0758C3CD2A9D28CD2AF20B50E7F0A0A
:1000B900318F20B507750901750A1422E509640114
:1000C9006029E50824FC601C24FD601824FD6014E7
:1000D90024FD601024FD600C24FD600824FD6004EB
:1000E900241670028005E4F50B8003750B01E50BFE
:1000F900600BE50DC394145004D2B28002C2B2E57C
:100109000C75F00A84E5F0700AD2B37FD0318FC242
:09011900B380987F84318F80923D
:02000B002122B0
:10012200C0E0C0D07432250FF50FE4350EF50EC3D2
:10013200E50F94E8E50E9403403A750E00750F0042
:10014200050CE50C943C402CE50A94015008750915
:1001520000750A008005750901150A750C00050D68
:10016200E50DC3943C400D750D000508E508B41873
:0901720003750800D0D0D0E03282
:0F018F007D9B7C03ED1D70011C144C70F7DFF19C
:01019E00223E
:0300000002000DEE
:0C000D00787FE4F6D8FD75810F020054E6
:10001900020099E493A3F8E493A34003F68001F264
:1000290008DFF48029E493A3F85407240CC8C333E8
:10003900C4540F4420C8834004F456800146F6DFB7
:10004900E4800B010204081020408090017BE47ECB
:10005900019360BCA3FF543F30E509541FFEE493AC
:10006900A360010ECF54C025E060A840B8E493A373
:10007900FAE493A3F8E493A3C8C582C8CAC583CA9E
:10008900F0A3C8C582C8CAC583CADFE9DEE780BE56
:01018E000070
:00000001FF
