:10000D00010800010B00010A00020C0000010900AB
:10003500E4F5B05387DFD2AEF5B175B20CC2B2D2DA
:10004500B4D2B5538E7F5389F0438901758AB07553
:100055008C3CD2A9D28CD2AF20B4217F14111E20A2
:10006500B41AE509D394004009C2B2E4F509D2B344
:10007500800575090FC2B320B4DE80FB20B5217F52
:1000850014111E20B51A750808E4F509F50AF50BD3
:10009500C2B37FE8111ED2B37FE8111EC2B380B888
:1000A500E50824F3600C24FA600824FC600424109D
:1000B5007012E509700EE50B700AE50AC39403504A
:1000C5000375090FE50A75F00A84E5F0700AC2B3F5
:0E00D5007FD0111ED2B380807F84111E015D8A
:02000B00216F63
:10016F00C0E0C0D07432250DF50DE4350CF50CC38D
:10017F00E50D94E8E50C94034042750C00750D00F5
:10018F00050AE509D394004002D2B2E50AC3943CB4
:10019F00402AE50994015007C2B27509008004D2C4
:1001AF00B21509750A00050BE50BC3943C400D759C
:1001BF000B000508E508B41803750800D0D0D0E08F
:0101CF0032FD
:020033000103C7
:08000300D2B3C2B25387DF3211
:0F001E007D9B7C03ED1D70011C144C70F7DFF10E
:01002D0022B0
:030000000200E318
:0C00E300787FE4F6D8FD75810D02012A3B
:1000EF00020035E493A3F8E493A34003F68001F2F2
:1000FF0008DFF48029E493A3F85407240CC8C33312
:10010F00C4540F4420C8834004F456800146F6DFE0
:10011F00E4800B010204081020408090000DE47E63
:10012F00019360BCA3FF543F30E509541FFEE493D5
:10013F00A360010ECF54C025E060A840B8E493A39C
:10014F00FAE493A3F8E493A3C8C582C8CAC583CAC7
:10015F00F0A3C8C582C8CAC583CADFE9DEE780BE7F
:01001D0000E2
:00000001FF
