:10000D00010817010B00010A00020C000001090094
:1000C100E4F5B05387DFD2AEF5B175B20CC2B2D24E
:1000D100B5538E7F5389F0438901758AB0758C3C85
:1000E100D2A9D28CD2AF20B50E7F14111E20B50734
:1000F10075090FD2B380EFE50824F3600C24FA6090
:100101000824FC600424107012E509700EE50B70E0
:100111000AE50AC39403500375090FE50A75F00A4D
:1001210084E5F0700AD2B37FD0111EC2B380B77FCD
:0501310084111E80B1E5
:02000B0021369C
:10013600C0E0C0D07432250DF50DE4350CF50CC3C6
:10014600E50D94E8E50C94034042750C00750D002E
:10015600050AE509D394004002D2B2E50AC3943CED
:10016600402AE50994015007C2B27509008004D2FD
:10017600B21509750A00050BE50BC3943C400D75D5
:100186000B000508E508B41803750800D0D0D0E0C8
:010196003236
:020033000103C7
:08000300D2B3C2B25387DF3211
:0F001E007D9B7C03ED1D70011C144C70F7DFF10E
:01002D0022B0
:03000000020035C6
:0C003500787FE4F6D8FD75810D02007C98
:100041000200C1E493A3F8E493A34003F68001F214
:1000510008DFF48029E493A3F85407240CC8C333C0
:10006100C4540F4420C8834004F456800146F6DF8F
:10007100E4800B010204081020408090000DE47E12
:10008100019360BCA3FF543F30E509541FFEE49384
:10009100A360010ECF54C025E060A840B8E493A34B
:1000A100FAE493A3F8E493A3C8C582C8CAC583CA76
:1000B100F0A3C8C582C8CAC583CADFE9DEE780BE2E
:01001D0000E2
:00000001FF
