:10014800010817010B16010A00020C000001090042
:10009900E4F5B175B20C538E7F5389F0438901752C
:1000A9008AB0758C3CD2A9D28CD2AF20B50B7F1403
:1000B900315920B50475091422E50824F3600C248C
:1000C900FA600824FC600424107003750914E50A19
:1000D90075F00A84E5F0700AD2B37FD03159C2B302
:0800E90080C97F84315980C3F6
:02000B0001F101
:1000F100C0E0C0D07432250DF50DE4350CF50CC30C
:10010100E50D94E8E50C94034038750C00750D007D
:10011100050AE50A943C402AE50994015007C2B258
:100121007509008004D2B21509750A00050BE50BAB
:10013100C3943C400D750B000508E508B418037520
:070141000800D0D0D0E0322D
:0F0159007D9B7C03ED1D70011C144C70F7DFF1D2
:010168002274
:0300000002000DEE
:0C000D00787FE4F6D8FD75810D020054E8
:10001900020099E493A3F8E493A34003F68001F264
:1000290008DFF48029E493A3F85407240CC8C333E8
:10003900C4540F4420C8834004F456800146F6DFB7
:10004900E4800B0102040810204080900148E47EFE
:10005900019360BCA3FF543F30E509541FFEE493AC
:10006900A360010ECF54C025E060A840B8E493A373
:10007900FAE493A3F8E493A3C8C582C8CAC583CA9E
:10008900F0A3C8C582C8CAC583CADFE9DEE780BE56
:0101580000A6
:00000001FF
