:100113005354433135462F4CCFB5C1D04D4355C40D
:10012300A3C4E2B4AEBFDAD1DDCABEB3CCD0F20D04
:100133000A003F065B4F666D7D077F6F777C395EF4
:1001430079710040761E7038375C733E783D675096
:10015300376EBF86DBCFE6EDFD87FFEF4601020476
:0501630008102040809F
:10022800C202C200751503751404751300C2017566
:030238001700228A
:0201EF008F1B64
:1001F100751C06751DA5E51D151D7002151C14FF46
:0D020100AE1CEF4E70F0151BAF1BEF70E34D
:01020E0022CD
:1000BD00538EFD438E805389FB5389FC758CFD75E2
:1000CD008A00D2A9D2B9D28CD2AF752100E521C355
:1000DD009408500CAF2174092FF8A621052180ED4D
:1000ED001202287BFF7A01791312019A1201687F9F
:1000FD00FF1201EF7FFF1201EF7FFF1201EF7FFF74
:05010D001201EF80E784
:0101120022CA
:0B0247008F27852708D2022002FD222D
:10019A008B248A258926AB24AA25A92612020FFFB9
:1001AA00EFD39400401AAB24AA25A92612020FFF06
:1001BA0012024774012526F526E43525F52580D651
:0101CA002212
:0201CB008F1E85
:1001CD00751F00E51FC394085012E51E25E0F51EAE
:1001DD00A2D792B2D2B3C2B3051F80E7AF1E1202EF
:0101ED0047CA
:0101EE0022EE
:10016800AF1AEF90016093FFEF64FFFF1201CBAF6E
:100178001A74092FF8E6FFEF90013593FF1201CBAF
:10018800D2B4C2B4051AAF1AEFC394084003751A63
:02019800002243
:03000B0002000EE2
:10000E00C0E0C0D075D000C000C00730004115144C
:10001E00AF14EF70457514031511AF11EF7022C2B6
:10002E000030B036200133AF1774282FF8A618050C
:10003E0017AF17EFC394204003751700751369802F
:10004E0019E518C313F51830B010431880800B2033
:10005E00B008D200751404751109E513D39400404D
:10006E00091513AF13EF7002D20130022F1515AF21
:10007E0015EF7028751503E512700AC2B1850819BF
:10008E0075120980171512AF12EF7006D2B1C202A7
:10009E00800AE519C313F519A2D792B11516AF163A
:0F00AE00EF700375163AD007D000D0D0D0E032F3
:0300000002023BBE
:0C023B00787FE4F6D8FD7581470200BD15
:10020F00BB010689828A83E0225002E722BBFE02ED
:09021F00E32289828A83E4932220
:00000001FF
