:10031D00EF640370481201E0FF700D9000011201AF
:10032D00F9F452B152B28035EFB4010D90000112C3
:10033D0001F942B1F452B280241201E0FFB4020C73
:10034D009000011201F942B142B28011EFB4030DD8
:10035D009000011201F9FFF452B1EF42B27F002279
:1004AE00010806010E3B010B32020F0000020CFF89
:0504BE00FF020900002F
:100449007511017512017513017B007A007911E4A8
:10045900FF12025E751101E4F512FB7A0079117F32
:040469000102025E2C
:10046D007512337511037B007A0079117F03120326
:10047D001D75120CE4F511FB7A0079117F0302034F
:01048D001D51
:10048E00E4F511751201751301751401F515751644
:10049E003C7517B0751801FB7A007911FF02003612
:10036D005387DFD2AE12046DD2B3D2B2D2B0C2B5C2
:10037D00C2B112044912048ED2AF120420E5082432
:10038D00F3600824FA6004240C70EFE50E70EBE5C1
:10039D000B70E7D3E5109464E50F940050DC120464
:0303AD00F680D700
:10042000E50AB4010BE4F50A1204F67F021203EFA9
:10043000E509B40113E4F50975080CF50FF510F59D
:090440000BF50E7F011203EF22FF
:0203EF008F116C
:1003F100E4F512F513C3E51395117480F8651298AD
:10040100501C7F647E00120016D2B17F647E001200
:0E0411000016C2B10513E51370DB051280D78B
:01041F0022BA
:0904F600D2B5750C01750DF4225C
:1003B000C3E50C648094805003C2B122D3E50D9450
:1003C00032E50C64809480500AE4F50CF50DC2B15E
:1003D000C2B522D3E50D9400E50C64809480400EF4
:0F03E000D2B174CE250DF50D74FF350CF50C223E
:1004C400E50B75F00A84E5F07003D2B022C2B022C5
:03000B000202CC22
:1002CC00C0E0C0F0C0D074322510F510E4350FF545
:1002DC000F1203B0C3E51094E8E50F9403402B759F
:1002EC000F007510001204C4050BE50BC3943C40C1
:1002FC0019750B00050EE50E943C400E750E0005AD
:10030C0008E50894184003750800D0D0D0F0D0E070
:01031C0032AE
:030003000204E113
:0B04E100C289750A0130B2FDD2A832BA
:030013000204D410
:0D04D400C2AAC28B75090130B3FDD2AA3255
:030033000204ECD8
:0A04EC00D2B1C2B0C2B55387DF32AF
:10003600AD07EDD3940240037F0122ED6003020079
:10004600CAC28C9000021201F9B40104D2A980023E
:10005600C2A99000011201F9B40104D2B98002C20A
:10006600B91201E0FED3940340037F0222E58954CE
:10007600FC4EF5899000031201F9FFB40103538E7B
:100086007FEF7003438E80EFB4020543890480033B
:100096005389FB9000041201F9B40105438F0180D6
:1000A60003538FFE900005120226E5F0F58C9000B2
:1000B60005120226F58A9000071201F9B40102D250
:1000C6008C7F0022ED64016003020151C28E900014
:1000D600021201F9B40104D2AB8002C2AB90000156
:1000E6001201F9B40104D2BB8002C2BB1201E0FEC8
:1000F600C3940340037F0222E58954CF4EF58990CD
:1001060000031201F9FFB40103538EBFEF700343DE
:100116008E40EFB4020543894080035389BF9000A7
:10012600041201F9B40105438F028003538FFD9039
:100136000005120226FDACF0ECF58D8D8B900007C4
:0E0146001201F9B40102D28E7F00227F022244
:100016007D9B7C03ED1D70011C144C70F7EF1F7067
:06002600011E144E70EAF9
:01002C0022B1
:10025E00EFD3940440037F0122EF702D9000021221
:10026E0001F9B40104D2A88002C2A89000011201C3
:10027E00F9B40104D2B88002C2B81201E0B401048C
:10028E00D2888002C2887F0022EF6401702D900018
:10029E00021201F9B40104D2AA8002C2AA9000018E
:1002AE001201F9B40104D2BA8002C2BA1201E0B44A
:0E02BE000104D28A8002C28A7F00227F0222BF
:03000000020154A6
:0C015400787FE4F6D8FD75811802019B4D
:1001E000BB010689828A83E0225002E722BBFE021D
:0901F000E32289828A83E4932250
:1001F900BB010CE58229F582E5833AF583E02250BB
:1002090006E92582F8E622BBFE06E92582F8E22204
:0D021900E58229F582E5833AF583E493221E
:10022600BB0110E58229F582E5833AF583E0F5F016
:10023600A3E0225009E92582F886F008E622BBFEF3
:100246000AE92582F8E2F5F008E222E5832AF58339
:08025600E993F5F0A3E99322FE
:1001600002036DE493A3F8E493A34003F68001F245
:1001700008DFF48029E493A3F85407240CC8C333A0
:10018000C4540F4420C8834004F456800146F6DF6F
:10019000E4800B01020408102040809004AEE47E4D
:1001A000019360BCA3FF543F30E509541FFEE49364
:1001B000A360010ECF54C025E060A840B8E493A32B
:1001C000FAE493A3F8E493A3C8C582C8CAC583CA56
:1001D000F0A3C8C582C8CAC583CADFE9DEE780BE0E
:0104C3000038
:00000001FF
