:10035A00EF6403704812026EFF700D9000011202E2
:10036A0087F452B152B28035EFB4010D90000112F8
:10037A00028742B1F452B2802412026EFFB4020C18
:10038A0090000112028742B142B28011EFB4030D0C
:10039A00900001120287FFF452B1EF42B27F0022AD
:1004CD00010806010E3B010B32020F0000020C0069
:0504DD0000020900000F
:10045200751901751A01751B017B007A007919E47F
:10046200FF1202EC751901E4F51AFB7A0079197F83
:04047200010202EC95
:100476007512337511037B007A0079117F0312031D
:100486005A75120CE4F511FB7A0079117F03020309
:010496005A0B
:10049700E4F511751201751301751401F51575163B
:1004A7003C7517B0751801FB7A007911FF02003609
:1003AA005387DFD2AE120476D2B3D2B2D2B0C2B57C
:1003BA00C2B1120497D2AF1203EAE50824F3600827
:1003CA0024FA6004240C70EFE50E70EBE50B70E77D
:1003DA00D3E5109432E50F940050DC1204E380D781
:1003EA0020B2127F147E0012001630B2FD1204E30E
:1003FA007F0212042120B31E7F147E0012001630E1
:10040A00B3FD750F0075103B750B3B750E3B7508F8
:07041A00077F0112042122FB
:020421008F1139
:10042300E4F512F513C3E51395117480F86512987A
:10043300501C7F647E00120016D2B17F647E0012CE
:0E0443000016C2B10513E51370DB051280D759
:010451002288
:1004E300D2B1D2B57F907E01120016C2B1C2B5E47B
:0504F300F50CF50D22DF
:1004F800E50B75F00A84E5F0700AD2B07F32FE127F
:050508000016C2B02244
:03000B000201549B
:10015400C0E0C0F0C083C082C0D075D000C000C071
:1001640001C002C003C004C005C006C00774322524
:1001740010F510E4350FF50FC3E51094E8E50F947E
:10018400034040750F007510001204F8050BE50BD1
:10019400C3943C402E750B00E50E700EE50B700AFF
:1001A400E510450F7004D2B18002C2B1050EE50E10
:1001B400C3943C400E750E000508E50894184003EE
:1001C400750800D007D006D005D004D003D002D0E3
:0E01D40001D000D0D0D082D083D0F0D0E03265
:03000300020517DC
:08051700C28930B2FDD2A83206
:030013000204B72D
:1004B700C2AAC28B30B303D2AA32750901750A01E9
:0604C70030B3FDD2AA32A1
:0300330002050DB6
:0A050D00D2B1C2B0C2B55387DF328D
:10003600AD07EDD3940240037F0122ED6003020079
:10004600CAC28C900002120287B40104D2A98002AF
:10005600C2A9900001120287B40104D2B98002C27B
:10006600B912026EFED3940340037F0222E589543F
:10007600FC4EF589900003120287FFB40103538EEC
:100086007FEF7003438E80EFB4020543890480033B
:100096005389FB900004120287B40105438F018047
:1000A60003538FFE9000051202B4E5F0F58C900024
:1000B600051202B4F58A900007120287B40102D233
:1000C6008C7F0022ED64016003020151C28E900014
:1000D60002120287B40104D2AB8002C2AB900001C7
:1000E600120287B40104D2BB8002C2BB12026EFEAA
:1000F600C3940340037F0222E58954CF4EF58990CD
:100106000003120287FFB40103538EBFEF7003434F
:100116008E40EFB4020543894080035389BF9000A7
:1001260004120287B40105438F028003538FFD90AA
:1001360000051202B4FDACF0ECF58D8D8B90000736
:0E014600120287B40102D28E7F00227F0222B5
:100016007D9B7C03ED1D70011C144C70F7EF1F7067
:06002600011E144E70EAF9
:01002C0022B1
:1002EC00EFD3940440037F0122EF702D9000021293
:1002FC000287B40104D2A88002C2A89000011202A5
:10030C0087B40104D2B88002C2B812026EB40104E0
:10031C00D2888002C2887F0022EF6401702D900089
:10032C0002120287B40104D2AA8002C2AA90000170
:10033C00120287B40104D2BA8002C2BA12026EB49D
:0E034C000104D28A8002C28A7F00227F022230
:030000000201E218
:0C01E200787FE4F6D8FD75811B0202292D
:10026E00BB010689828A83E0225002E722BBFE028E
:09027E00E32289828A83E49322C1
:10028700BB010CE58229F582E5833AF583E022502C
:1002970006E92582F8E622BBFE06E92582F8E22276
:0D02A700E58229F582E5833AF583E4932290
:1002B400BB0110E58229F582E5833AF583E0F5F088
:1002C400A3E0225009E92582F886F008E622BBFE65
:1002D4000AE92582F8E2F5F008E222E5832AF583AB
:0802E400E993F5F0A3E9932270
:1001EE000203AAE493A3F8E493A34003F68001F27A
:1001FE0008DFF48029E493A3F85407240CC8C33312
:10020E00C4540F4420C8834004F456800146F6DFE0
:10021E00E4800B01020408102040809004CDE47E9F
:10022E00019360BCA3FF543F30E509541FFEE493D5
:10023E00A360010ECF54C025E060A840B8E493A39C
:10024E00FAE493A3F8E493A3C8C582C8CAC583CAC7
:10025E00F0A3C8C582C8CAC583CADFE9DEE780BE7F
:0104E2000019
:00000001FF
