:1002AC00EF640370481201C0FF700D900001120141
:1002BC00D9F452B152B28035EFB4010D9000011255
:1002CC0001D942B1F452B280241201C0FFB4020C25
:1002DC009000011201D942B142B28011EFB4030D6A
:1002EC009000011201D9FFF452B1EF42B27F00220B
:1004D500010808010D00010B00020E0000010C00CF
:0404E5000209000008
:10045B00E4F510751101751201FB7A007910FF128A
:10046B00023E751001E4F511FB7A0079107F010251
:02047B00023E3F
:10047D007511337510037B007A0079107F0312021A
:10048D00AC75110CE4F510FB7A0079107F030202B4
:01049D00ACB2
:10049E00E4F510751101751201751301F51475153A
:1004AE003C7516B0751701FB7A007910FF02001625
:1003950012047DD2B3D2B2D2B0C2B5C2B112045BDF
:1003A50012049ED2AF120432E50824F3600824FA41
:1003B5006004240C70EFE50D70EBE50B70E7D3E5F9
:0E03C5000F9464E50E940050DC1204F580D70E
:10043200E50AB4010BE4F50A1204F57F021203D3B4
:10044200E509B40113E4F50975080CF50EF50FF58D
:090452000BF50D7F011203D3220A
:0203D3008F1089
:1003D500E4F511F512C3E51295107480F8651198CE
:1003E500501C7F647E001204BED2B17F647E001271
:0E03F50004BEC2B10512E51270DB051180D7FF
:0104030022D6
:0604F500D2B5750C0A22CD
:10040400E50B75F00A84E5F07004D2B08002C2B046
:10041400E50C700122E50CB40108E4F50CC2B1C28C
:0E042400B522E50CD394004004D2B1150C2291
:03000B000202FCF2
:1002FC00C0E0C0F0C0D07432250FF50FE4350EF518
:10030C000EC3E50F94E8E50E9403402B750E0075B3
:10031C000F00120404050BE50BC3943C4019750B3C
:10032C0000050DE50D943C400E750D000508E50823
:0E033C0094184003750800D0D0D0F0D0E03205
:030003000204EA0A
:0B04EA00C289750A0130B2FDD2A832B1
:0300130002034A9B
:10034A00C0E0C0F0C083C082C0D075D000C000C079
:10035A0001C002C003C004C005C006C007C2AAC2C9
:10036A008B7509017FD07E071204BE30B3FDD2AA75
:10037A00D007D006D005D004D003D002D001D000D7
:0B038A00D0D0D082D083D0F0D0E03281
:10001600AD07EDD3940240037F0122ED6003020099
:10002600AAC28C9000021201D9B40104D2A980029E
:10003600C2A99000011201D9B40104D2B98002C24A
:10004600B91201C0FED3940340037F0222E589540E
:10005600FC4EF5899000031201D9FFB40103538EBB
:100066007FEF7003438E80EFB4020543890480035B
:100076005389FB9000041201D9B40105438F018016
:1000860003538FFE900005120206E5F0F58C9000F2
:1000960005120206F58A9000071201D9B40102D2B0
:1000A6008C7F0022ED64016003020131C28E900054
:1000B600021201D9B40104D2AB8002C2AB90000196
:1000C6001201D9B40104D2BB8002C2BB1201C0FE28
:1000D600C3940340037F0222E58954CF4EF58990ED
:1000E60000031201D9FFB40103538EBFEF7003431F
:1000F6008E40EFB4020543894080035389BF9000C8
:10010600041201D9B40105438F028003538FFD9079
:100116000005120206FDACF0ECF58D8D8B90000704
:0E0126001201D9B40102D28E7F00227F022284
:1004BE007D9B7C03ED1D70011C144C70F7EF1F70BB
:0604CE00011E144E70EA4D
:0104D4002205
:10023E00EFD3940440037F0122EF702D9000021241
:10024E0001D9B40104D2A88002C2A8900001120103
:10025E00D9B40104D2B88002C2B81201C0B40104EC
:10026E00D2888002C2887F0022EF6401702D900038
:10027E00021201D9B40104D2AA8002C2AA900001CE
:10028E001201D9B40104D2BA8002C2BA1201C0B4AA
:0E029E000104D28A8002C28A7F00227F0222DF
:03000000020134C6
:0C013400787FE4F6D8FD75811702017B8E
:1001C000BB010689828A83E0225002E722BBFE023D
:0901D000E32289828A83E4932270
:1001D900BB010CE58229F582E5833AF583E02250DB
:1001E90006E92582F8E622BBFE06E92582F8E22225
:0D01F900E58229F582E5833AF583E493223F
:10020600BB0110E58229F582E5833AF583E0F5F036
:10021600A3E0225009E92582F886F008E622BBFE13
:100226000AE92582F8E2F5F008E222E5832AF58359
:08023600E993F5F0A3E993221E
:10014000020395E493A3F8E493A34003F68001F23D
:1001500008DFF48029E493A3F85407240CC8C333C0
:10016000C4540F4420C8834004F456800146F6DF8F
:10017000E4800B01020408102040809004D5E47E46
:10018000019360BCA3FF543F30E509541FFEE49384
:10019000A360010ECF54C025E060A840B8E493A34B
:1001A000FAE493A3F8E493A3C8C582C8CAC583CA76
:1001B000F0A3C8C582C8CAC583CADFE9DEE780BE2E
:0104E9000012
:00000001FF
