:0F0471007D367C07ED1D70011C144C70F7DFF118
:010480002259
:03000B0002004AA6
:10004A0030B507758C0085098A32758C0085088A57
:01005A003273
:03001B00020003DD
:0100030032CA
:0300630002046034
:1004600030B00775D600850ED73275D600850DD70A
:010470003259
:10022F00AD07EDD3940240037F0122ED600302027C
:10023F00C3C28C900002120175B40104D2A98002CE
:10024F00C2A9900001120175B40104D2B98002C293
:10025F00B912015CFED3940340037F0222E5895457
:10026F00FC4EF589900003120175FFB40103538E04
:10027F007FEF7003438E80EFB40205438904800340
:10028F005389FB900004120175B40105438F01805F
:10029F0003538FFE9000051201F7E5F0F58C9000E7
:1002AF00051201F7F58A900007120175B40102D209
:1002BF008C7F0022ED6401600302034EC28E90001A
:1002CF0002120175B40104D2AB8002C2AB900001DF
:1002DF00120175B40104D2BB8002C2BB12015CFED5
:1002EF00C3940340037F0222E58954CF4EF58990D2
:1002FF000003120175FFB40103538EBFEF70034368
:10030F008E40EFB4020543894080035389BF9000AC
:10031F0004120175B40105438F028003538FFD90C2
:10032F0000051201F7E5F0F58D9000051201F7F5C4
:10033F008B900007120175B40102D28E7F0022ED5F
:10034F0064027074538EEF900002120175B40105B0
:10035F0043AF04800353AFFB900003120175FED32C
:10036F00940240037F0222EEB40103538EFB9000F0
:10037F00031201757003438E04900003120175B4CC
:10038F000205438E088003538EF790000412017507
:10039F00B40105438F048003538FFB9000051201B6
:1003AF00F7FDACF0ECF5D68DD7900007120175B4C0
:0B03BF000103438E107F00227F02220A
:1003CA00E4F518751901751A01F51B751C01751DDF
:1003DA00FF751EE0751F01FB7A007918FF12022FC4
:0B03EA007B007A0079187F0202022FCE
:0F001E0078187C007D007B007E007F0512013684
:10002D00E51AFD7C00AE1BAF1C1201A2C3E4951CAA
:0C003D00FDED2FFDC3E49FFF8D188F190F
:010049002294
:10041F00C2AF750A32750B17750C70750F3C7510DE
:10042F002A7511F87A00790812001E7A00790D12D8
:05043F00001ED2AF22F7
:10044400C2B5C2B053B1DF43B22053B1FE43B201CF
:0C0454001203CAC2B5C2B012041F80FE21
:0D0491007FBF7E00EF1F70011E144E70F73C
:01049E00223B
:0203F500AD0752
:1003F700C2AFC2B1120491E4FCED30E004D2B18087
:1004070002C2B1EDC313FD1204910CBC08EBD2B1CB
:08041700D2AF1204910204911E
:100481008F828E83E493FF60061203F5A380F52229
:0300000002000EED
:0C000E00787FE4F6D8FD75811F020444E1
:10006600E709F608DFFA8046E709F208DFFA803E7C
:1000760088828C83E709F0A3DFFA8032E309F60869
:10008600DFFA8078E309F208DFFA807088828C83D1
:10009600E309F0A3DFFA806489828A83E0A3F60885
:1000A600DFFA805889828A83E0A3F208DFFA804C5F
:1000B60080D280FA80C680D4806980F28033801036
:1000C60080A680EA809A80A880DA80E280CA80339F
:1000D60089828A83ECFAE493A3C8C582C8CCC58317
:1000E600CCF0A3C8C582C8CCC583CCDFE9DEE780E7
:1000F6000D89828A83E493A3F608DFF9ECFAA9F066
:10010600EDFB2289828A83ECFAE0A3C8C582C8CCBB
:10011600C583CCF0A3C8C582C8CCC583CCDFEADED4
:10012600E880DB89828A83E493A3F208DFF980CC36
:1001360088F0EF60010E4E60C388F0ED2402B4042F
:100146000050B9F582EB2402B4040050AF232345D6
:0601560082239000B67345
:10015C00BB010689828A83E0225002E722BBFE02A1
:09016C00E32289828A83E49322D4
:10017500BB010CE58229F582E5833AF583E022503F
:1001850006E92582F8E622BBFE06E92582F8E22289
:0D019500E58229F582E5833AF583E49322A3
:1001A200BC000BBE0029EF8DF084FFADF022E4CC41
:1001B200F875F008EF2FFFEE33FEEC33FCEE9DEC0A
:1001C200984005FCEE9DFE0FD5F0E9E4CEFD22ED50
:1001D200F8F5F0EE8420D21CFEADF075F008EF2F9A
:1001E200FFED33FD4007985006D5F0F222C398FD8B
:0501F2000FD5F0EA2228
:1001F700BB0110E58229F582E5833AF583E0F5F046
:10020700A3E0225009E92582F886F008E622BBFE22
:100217000AE92582F8E2F5F008E222E5832AF58368
:08022700E993F5F0A3E993222D
:00000001FF
