:0F045B007D367C07ED1D70011C144C70F7DFF12E
:01046A00226F
:03000B00020049A7
:1000490030B507758C0085098A32758C0085088A58
:010059003274
:03001B00020003DD
:0100030032CA
:0300630002044A4A
:10044A0030B00775D600850ED73275D600850DD720
:01045A00326F
:10006600AD07EDD3940240037F0122ED6003020049
:10007600FAC28C90000212021AB40104D2A98002BC
:10008600C2A990000112021AB40104D2B98002C2B8
:10009600B9120201FED3940340037F0222E589547C
:1000A600FC4EF58990000312021AFFB40103538E29
:1000B6007FEF7003438E80EFB4020543890480030B
:1000C6005389FB90000412021AB40105438F018084
:1000D60003538FFE9000051202D0E5F0F58C9000D8
:1000E600051202D0F58A90000712021AB40102D254
:1000F6008C7F0022ED64016003020185C28E9000B0
:100106000212021AB40104D2AB8002C2AB90000103
:1001160012021AB40104D2BB8002C2BB120201FE53
:10012600C3940340037F0222E58954CF4EF589909C
:10013600000312021AFFB40103538EBFEF7003438C
:100146008E40EFB4020543894080035389BF900077
:100156000412021AB40105438F028003538FFD90E7
:1001660000051202D0E5F0F58D9000051202D0F5DB
:100176008B90000712021AB40102D28E7F0022ED84
:1001860064027074538EEF90000212021AB40105D5
:1001960043AF04800353AFFB90000312021AFED351
:1001A600940240037F0222EEB40103538EFB9000BB
:1001B6000312021A7003438E0490000312021AB44B
:1001C6000205438E088003538EF790000412021A2C
:1001D600B40105438F048003538FFB900005120280
:1001E600D0FDACF0ECF5D68DD790000712021AB40C
:0B01F6000103438E107F00227F0222D5
:0E047B0005080000000000050D000000000054
:10001E00E4F512751301751401F5157516017517B2
:10002E00FF7518E0751901FB7A007912FF12006650
:0B003E007B007A0079127F020200664E
:060394008B128A1389148C
:10039A0090000212021AFD7C009000031202D0FBA8
:1003AA00AAF0FFAE0212027BC3E49BFDE49AFCEDC5
:1003BA002FF516EC3EF515C3E49FFFC2AFAB12AAA8
:1003CA0013EF120247AB12AA13A914900001E51603
:0503DA00120259D2AF30
:0103DF0022FB
:10040A00750A0A750B00750C647B007A007908126C
:10041A000394750F147510137511EC7B007A00792B
:04042A000D02039428
:10042E00C2B5C2B053B1DF43B22053B1FE43B201E5
:0C043E0012001EC2B5C2B012040A80FEFB
:0D048A007FBF7E00EF1F70011E144E70F743
:010497002242
:0203E000AD0767
:1003E200C2AFC2B112048AE4FCED30E004D2B180A3
:1003F20002C2B1EDC313FD12048A0CBC08EBD2B1E8
:08040200D2AF12048A02048A41
:10046B008F828E83E493FF60061203E0A380F52254
:03000000020308F0
:0C030800787FE4F6D8FD75811902034FE0
:10020100BB010689828A83E0225002E722BBFE02FB
:09021100E32289828A83E493222E
:10021A00BB010CE58229F582E5833AF583E0225099
:10022A0006E92582F8E622BBFE06E92582F8E222E3
:0D023A00E58229F582E5833AF583E49322FD
:10024700BB010689828A83F0225002F722BBFE0196
:02025700F32290
:10025900F8BB010DE58229F582E5833AF583E8F0DB
:10026900225006E92582C8F622BBFE05E92582C887
:02027900F2226F
:10027B00BC000BBE0029EF8DF084FFADF022E4CC67
:10028B00F875F008EF2FFFEE33FEEC33FCEE9DEC30
:10029B00984005FCEE9DFE0FD5F0E9E4CEFD22ED76
:1002AB00F8F5F0EE8420D21CFEADF075F008EF2FC0
:1002BB00FFED33FD4007985006D5F0F222C398FDB1
:0502CB000FD5F0EA224E
:1002D000BB0110E58229F582E5833AF583E0F5F06C
:1002E000A3E0225009E92582F886F008E622BBFE49
:1002F0000AE92582F8E2F5F008E222E5832AF5838F
:08030000E993F5F0A3E9932253
:1003140002042EE493A3F8E493A34003F68001F2CD
:1003240008DFF48029E493A3F85407240CC8C333EA
:10033400C4540F4420C8834004F456800146F6DFB9
:10034400E4800B010204081020408090047BE47ECA
:10035400019360BCA3FF543F30E509541FFEE493AE
:10036400A360010ECF54C025E060A840B8E493A375
:10037400FAE493A3F8E493A3C8C582C8CAC583CAA0
:10038400F0A3C8C582C8CAC583CADFE9DEE780BE58
:010489000072
:00000001FF
