:10006600EFD3940540037F01221203C5FED3940308
:1000760040037F0222EF7041EE700B9000011203E5
:10008600DEF4529352941203C5B4010B9000011290
:1000960003DE4293F452941203C5FEB4020A9000A2
:1000A600011203DE42934294EEB4030D9000011256
:1000B60003DEFEF45293EE4294EF640170431203A2
:1000C600C5FE700B9000011203DEF452915292EEBF
:1000D600B4010B9000011203DE4291F45292120316
:1000E600C5B4020A9000011203DE42914292120345
:1000F600C5B4030D9000011203DEFEF45291EE42E8
:1001060092EF640270431203C5FE700B9000011259
:1001160003DEF452955296EEB4010B9000011203E1
:10012600DE4295F452961203C5B4020A90000112FB
:1001360003DE429542961203C5B4030D90000112E8
:1001460003DEFEF45295EE4296EF6403704312030B
:10015600C5FE700B9000011203DEF452B152B2EEEE
:10016600B4010B9000011203DE42B1F452B2120345
:10017600C5B4020A9000011203DE42B142B2120374
:10018600C5B4030D9000011203DEFEF452B1EE4237
:10019600B2EF640470431203C5FE700B90000112A7
:1001A60003DEF452B352B4EEB4010B900001120315
:1001B600DE42B3F452B41203C5B4020A900001122F
:1001C60003DE42B342B41203C5B4030D900001121C
:1001D60003DEFEF452B3EE42B4EF6405704312033D
:1001E600C5FF700B9000011203DEF452C952CAEF2C
:1001F600B4010B9000011203DE42C9F452CA120385
:10020600C5B4020A9000011203DE42C942CA1203B3
:10021600C5B4030D9000011203DEFFF452C9EF428C
:04022600CA7F002269
:10000E000D0A20BFAACABCB9A4D7F7C1CB2E2E2E7B
:10001E00203D20000D0A20CFD6D4DACAB1BCE43A76
:10002E00000D0A20000D0A20B0B4BCFCD2D1B0B431
:04003E00CFC22E00FF
:10089F00040800000000041500000000041100000F
:1008AF000000041900000000010F32020C000001CB
:0508BF000E0001100114
:10004200751E0C751D037B007A00791D7F0312005B
:1000520066751E20E4F51DFB7A00791D7F03020000
:010062006637
:1008EB00E4F51D751E01751F01752001F52175229B
:1008FB003C7523B0752401FB7A00791DFF02022A97
:10063A00120042D2B2D2B3D2B51208EBD2AF7E00C8
:10064A007F0E12093F12090BE4FFFEFDFCAB0BAA59
:10065A000AA909A808C3120511606AE47F04FEFD0D
:10066A00FCA808C3120511605CE47F07FEFDFCA824
:10067A0008C3120511604EE47F0AFEFDFCA808C3F8
:10068A001205116040E47F0DFEFDFCA808C31205A7
:10069A00116032E47F10FEFDFCA808C31205116048
:1006AA0024E47F13FEFDFCA808C31205116016E4BA
:1006BA007F16FEFDFCA808C31205116008E50D644B
:1006CA0001450C7022AF10E4FCFDFEAB18AA17A975
:1006DA0016A815C31205114008E50D6401450C70F2
:1006EA0004D2B38002C2B3E47B0AFAF9F8AF14AEBB
:1006FA0013AD12AC1112047FAC00AD01AE02AF0310
:10070A00E4FBFAF9F8C3120511700CD2B27FD012C9
:0F071A00094FC2B202064F7F2012094F02064F4D
:03000B00020522C9
:10052200C0E0C0F0C083C082C0D075D000C000C09F
:1005320001C002C003C004C005C006C007E4FCFD40
:10054200FEE51C250FF51CEE351BF51BED351AF5E6
:100552001AEC3519F519E47FE87E03AB1CAA1BA936
:100562001AA819C3120511500302061F751C007543
:100572001B00751A00751900120003E5142401F519
:1005820014E43513F513E43512F512E43511F511BF
:10059200E47F3CFEFDFCAB14AA13A912A811C312FE
:1005A20005114079120927751400751300751200A0
:1005B200751100E5182401F518E43517F517E4352F
:1005C20016F516E43515F515E47F3CFEFDFCAB1877
:1005D200AA17A916A815C31205114041751800756E
:1005E2001700751600751500E50B2401F50BE435AF
:1005F2000AF50AE43509F509E43508F508E47F1837
:10060200FEFDFCAB0BAA0AA909A808C312051140FA
:100612000C750B00750A00750900750800D007D02B
:1006220006D005D004D003D002D001D000D0D0D063
:0806320082D083D0F0D0E03249
:10092700E50EC394015008E4F50CF50DF50E22759C
:080937000C00750D01150E22E4
:03000300020729C8
:100729007E007F2212093F7F481208C5E47B64FAE4
:10073900F9F8AF0BAE0AAD09AC0812047FAC00ADF5
:1007490001AE02AF03E47B0AFAF9F812047FEF2441
:1007590030FF1208C5E47B0AFAF9F8AF0BAE0AAD0F
:1007690009AC0812047FEB2430FF1208C57F201260
:1007790008C57F4D1208C5E47B64FAF9F8AF18AED5
:1007890017AD16AC1512047FAC00AD01AE02AF0374
:10079900E47B0AFAF9F812047FEF2430FF1208C546
:1007A900E47B0AFAF9F8AF18AE17AD16AC151204C6
:1007B9007FEB2430FF1208C57F201208C57F531232
:1007C90008C5E47B64FAF9F8AF14AE13AD12AC11A5
:1007D90012047FAC00AD01AE02AF03E47B0AFAF963
:1007E900F812047FEF2430FF1208C5E47B0AFAF9F6
:1007F900F8AF14AE13AD12AC1112047FEB2430FF25
:0A0809001208C57E007F2F02093F90
:10090B0020B5187F0A12094F20B510750C00750D14
:0C091B000185100E7E007F3312093F2280
:0300630002000692
:03000600B2B5325E
:10022A00AD07EDD3940240037F0122ED6003020281
:10023A00BEC28C9000021203DEB40104D2A980026D
:10024A00C2A99000011203DEB40104D2B98002C22D
:10025A00B91203C5FED3940340037F0222E58954F1
:10026A00FC4EF5899000031203DEFFB40103538E9E
:10027A007FEF7003438E80EFB40205438904800345
:10028A005389FB9000041203DEB40105438F0180F9
:10029A0003538FFE90000512040BE5F0F58C9000D5
:1002AA000512040BF58A9000071203DEB40102D28C
:1002BA008C7F0022ED64016003020349C28E900024
:1002CA00021203DEB40104D2AB8002C2AB90000179
:1002DA001203DEB40104D2BB8002C2BB1203C5FE04
:1002EA00C3940340037F0222E58954CF4EF58990D7
:1002FA0000031203DEFFB40103538EBFEF70034302
:10030A008E40EFB4020543894080035389BF9000B1
:10031A00041203DEB40105438F028003538FFD905C
:10032A00000512040BE5F0F58D90000512040BF59B
:10033A008B9000071203DEB40102D28E7F0022EDF9
:10034A0064027074538EEF9000021203DEB401054A
:10035A0043AF04800353AFFB9000031203DEFED3C6
:10036A00940240037F0222EEB40103538EFB9000F5
:10037A00031203DE7003438E049000031203DEB4FB
:10038A000205438E088003538EF79000041203DEA1
:10039A00B40105438F048003538FFB9000051204B8
:1003AA000BFDACF0ECF5D68DD79000071203DEB446
:0B03BA000103438E107F00227F02220F
:0D095F007F5F7E00EF1F70011E144E70F7C9
:01096C002268
:0208C500AD077D
:1008C700C2B112095FE4FCED30E004D2B18002C28C
:1008D700B1EDC313FD12095F0CBC08EBD2B11209CD
:0408E7005F02095F44
:10093F008F828E83E493FF60061208C5A380F52291
:0F094F007D9B7C03ED1D70011C144C70F7DFF1D4
:01095E002276
:03000000020813E0
:0C081300787FE4F6D8FD75812402085AB5
:1003C500BB010689828A83E0225002E722BBFE0236
:0903D500E32289828A83E4932269
:1003DE00BB010CE58229F582E5833AF583E02250D4
:1003EE0006E92582F8E622BBFE06E92582F8E2221E
:0D03FE00E58229F582E5833AF583E4932238
:10040B00BB0110E58229F582E5833AF583E0F5F02F
:10041B00A3E0225009E92582F886F008E622BBFE0C
:10042B000AE92582F8E2F5F008E222E5832AF58352
:08043B00E993F5F0A3E9932217
:1004430075F008758200EF2FFFEE33FECD33CDCC70
:1004530033CCC58233C5829BED9AEC99E5829840F3
:100463000CF582EE9BFEED9AFDEC99FC0FD5F0D6D0
:10047300E4CEFBE4CDFAE4CCF9A88222B800C1B9FA
:100483000059BA002DEC8BF084CFCECDFCE5F0CB38
:10049300F97818EF2FFFEE33FEED33FDEC33FCEB71
:1004A30033FB10D703994004EB99FB0FD8E5E4F92C
:1004B300FA227818EF2FFFEE33FEED33FDEC33FC19
:1004C300C933C910D7059BE99A4007EC9BFCE99A0D
:1004D300F90FD8E0E4C9FAE4CCFB2275F010EF2F52
:1004E300FFEE33FEED33FDCC33CCC833C810D70752
:1004F3009BEC9AE899400AED9BFDEC9AFCE899F88D
:0E0503000FD5F0DAE4CDFBE4CCFAE4C8F9221F
:10051100EB9FF5F0EA9E42F0E99D42F0E89C45F040
:0105210022B7
:10081F0002063AE493A3F8E493A34003F68001F2AF
:10082F0008DFF48029E493A3F85407240CC8C333DA
:10083F00C4540F4420C8834004F456800146F6DFA9
:10084F00E4800B010204081020408090089FE47E92
:10085F00019360BCA3FF543F30E509541FFEE4939E
:10086F00A360010ECF54C025E060A840B8E493A365
:10087F00FAE493A3F8E493A3C8C582C8CAC583CA90
:10088F00F0A3C8C582C8CAC583CADFE9DEE780BE48
:0108C4000033
:00000001FF
